{
  "contractName": "MDXCrowdsale",
  "abi": [
    {
      "constant": true,
      "inputs": [
        {
          "name": "_operator",
          "type": "address"
        },
        {
          "name": "_role",
          "type": "string"
        }
      ],
      "name": "checkRole",
      "outputs": [],
      "payable": false,
      "stateMutability": "view",
      "type": "function"
    },
    {
      "constant": true,
      "inputs": [],
      "name": "ROLE_WHITELISTED",
      "outputs": [
        {
          "name": "",
          "type": "string"
        }
      ],
      "payable": false,
      "stateMutability": "view",
      "type": "function"
    },
    {
      "constant": true,
      "inputs": [
        {
          "name": "_operator",
          "type": "address"
        },
        {
          "name": "_role",
          "type": "string"
        }
      ],
      "name": "hasRole",
      "outputs": [
        {
          "name": "",
          "type": "bool"
        }
      ],
      "payable": false,
      "stateMutability": "view",
      "type": "function"
    },
    {
      "constant": false,
      "inputs": [
        {
          "name": "_operators",
          "type": "address[]"
        }
      ],
      "name": "removeAddressesFromWhitelist",
      "outputs": [],
      "payable": false,
      "stateMutability": "nonpayable",
      "type": "function"
    },
    {
      "constant": false,
      "inputs": [
        {
          "name": "_operator",
          "type": "address"
        }
      ],
      "name": "removeAddressFromWhitelist",
      "outputs": [],
      "payable": false,
      "stateMutability": "nonpayable",
      "type": "function"
    },
    {
      "constant": true,
      "inputs": [],
      "name": "weiRaised",
      "outputs": [
        {
          "name": "",
          "type": "uint256"
        }
      ],
      "payable": false,
      "stateMutability": "view",
      "type": "function"
    },
    {
      "constant": true,
      "inputs": [],
      "name": "tokensSold",
      "outputs": [
        {
          "name": "",
          "type": "uint256"
        }
      ],
      "payable": false,
      "stateMutability": "view",
      "type": "function"
    },
    {
      "constant": false,
      "inputs": [],
      "name": "renounceOwnership",
      "outputs": [],
      "payable": false,
      "stateMutability": "nonpayable",
      "type": "function"
    },
    {
      "constant": false,
      "inputs": [
        {
          "name": "_operator",
          "type": "address"
        }
      ],
      "name": "addAddressToWhitelist",
      "outputs": [],
      "payable": false,
      "stateMutability": "nonpayable",
      "type": "function"
    },
    {
      "constant": true,
      "inputs": [],
      "name": "owner",
      "outputs": [
        {
          "name": "",
          "type": "address"
        }
      ],
      "payable": false,
      "stateMutability": "view",
      "type": "function"
    },
    {
      "constant": true,
      "inputs": [
        {
          "name": "_operator",
          "type": "address"
        }
      ],
      "name": "whitelist",
      "outputs": [
        {
          "name": "",
          "type": "bool"
        }
      ],
      "payable": false,
      "stateMutability": "view",
      "type": "function"
    },
    {
      "constant": false,
      "inputs": [
        {
          "name": "_operators",
          "type": "address[]"
        }
      ],
      "name": "addAddressesToWhitelist",
      "outputs": [],
      "payable": false,
      "stateMutability": "nonpayable",
      "type": "function"
    },
    {
      "constant": false,
      "inputs": [
        {
          "name": "_newOwner",
          "type": "address"
        }
      ],
      "name": "transferOwnership",
      "outputs": [],
      "payable": false,
      "stateMutability": "nonpayable",
      "type": "function"
    },
    {
      "inputs": [
        {
          "name": "_start",
          "type": "uint256"
        },
        {
          "name": "_wallet",
          "type": "address"
        },
        {
          "name": "_token",
          "type": "address"
        }
      ],
      "payable": false,
      "stateMutability": "nonpayable",
      "type": "constructor"
    },
    {
      "payable": true,
      "stateMutability": "payable",
      "type": "fallback"
    },
    {
      "anonymous": false,
      "inputs": [
        {
          "indexed": true,
          "name": "purchaser",
          "type": "address"
        },
        {
          "indexed": true,
          "name": "beneficiary",
          "type": "address"
        },
        {
          "indexed": false,
          "name": "value",
          "type": "uint256"
        },
        {
          "indexed": false,
          "name": "amount",
          "type": "uint256"
        }
      ],
      "name": "TokenPurchase",
      "type": "event"
    },
    {
      "anonymous": false,
      "inputs": [
        {
          "indexed": true,
          "name": "operator",
          "type": "address"
        },
        {
          "indexed": false,
          "name": "role",
          "type": "string"
        }
      ],
      "name": "RoleAdded",
      "type": "event"
    },
    {
      "anonymous": false,
      "inputs": [
        {
          "indexed": true,
          "name": "operator",
          "type": "address"
        },
        {
          "indexed": false,
          "name": "role",
          "type": "string"
        }
      ],
      "name": "RoleRemoved",
      "type": "event"
    },
    {
      "anonymous": false,
      "inputs": [
        {
          "indexed": true,
          "name": "previousOwner",
          "type": "address"
        }
      ],
      "name": "OwnershipRenounced",
      "type": "event"
    },
    {
      "anonymous": false,
      "inputs": [
        {
          "indexed": true,
          "name": "previousOwner",
          "type": "address"
        },
        {
          "indexed": true,
          "name": "newOwner",
          "type": "address"
        }
      ],
      "name": "OwnershipTransferred",
      "type": "event"
    },
    {
      "constant": false,
      "inputs": [
        {
          "name": "_to",
          "type": "address"
        }
      ],
      "name": "buyTokens",
      "outputs": [],
      "payable": true,
      "stateMutability": "payable",
      "type": "function"
    },
    {
      "constant": true,
      "inputs": [],
      "name": "totalRemainingTokens",
      "outputs": [
        {
          "name": "remaining",
          "type": "uint256"
        }
      ],
      "payable": false,
      "stateMutability": "view",
      "type": "function"
    },
    {
      "constant": true,
      "inputs": [],
      "name": "roundRemainingTokens",
      "outputs": [
        {
          "name": "remaining",
          "type": "uint256"
        }
      ],
      "payable": false,
      "stateMutability": "view",
      "type": "function"
    }
  ],
  "bytecode": "0x60806040526005805460ff1916905534801561001a57600080fd5b5060405160608061124c8339810160409081528151602083015191909201516000805433600160a060020a031991821617909155600280548216600160a060020a0380861691909117909155600380549092169083161790556004839055610089640100000000610095810204565b600655506100fd915050565b60055460009060ff1615156100b657506a24655cc78b38d7ac0000006100fa565b60055460ff16600114156100d657506a0cd240af0568633f8000006100fa565b60055460ff16600214156100f657506a013dce87f124cf8a0000006100fa565b5060005b90565b6111408061010c6000396000f3006080604052600436106100e55763ffffffff7c01000000000000000000000000000000000000000000000000000000006000350416630988ca8c81146100f057806318b919e914610164578063217fe6c6146101ee57806324953eaa14610276578063286dd3f5146102cb5780634042b66f146102f9578063518ab2a814610320578063583f18ff146103355780636d0795e71461034a578063715018a61461035f5780637b9417c8146103745780638da5cb5b146103a25780639b19251a146103e0578063e2ec6ec31461040e578063ec8ac4d814610463578063f2fde38b14610484575b6100ee336104b2565b005b3480156100fc57600080fd5b5060408051602060046024803582810135601f81018590048502860185019096528585526100ee95833573ffffffffffffffffffffffffffffffffffffffff1695369560449491939091019190819084018382808284375094975061069e9650505050505050565b34801561017057600080fd5b5061017961070c565b6040805160208082528351818301528351919283929083019185019080838360005b838110156101b357818101518382015260200161019b565b50505050905090810190601f1680156101e05780820380516001836020036101000a031916815260200191505b509250505060405180910390f35b3480156101fa57600080fd5b5060408051602060046024803582810135601f810185900485028601850190965285855261026295833573ffffffffffffffffffffffffffffffffffffffff169536956044949193909101919081908401838280828437509497506107439650505050505050565b604080519115158252519081900360200190f35b34801561028257600080fd5b50604080516020600480358082013583810280860185019096528085526100ee953695939460249493850192918291850190849080828437509497506107b89650505050505050565b3480156102d757600080fd5b506100ee73ffffffffffffffffffffffffffffffffffffffff60043516610812565b34801561030557600080fd5b5061030e610878565b60408051918252519081900360200190f35b34801561032c57600080fd5b5061030e61087e565b34801561034157600080fd5b5061030e610884565b34801561035657600080fd5b5061030e6108dc565b34801561036b57600080fd5b506100ee610947565b34801561038057600080fd5b506100ee73ffffffffffffffffffffffffffffffffffffffff600435166109d8565b3480156103ae57600080fd5b506103b7610a3b565b6040805173ffffffffffffffffffffffffffffffffffffffff9092168252519081900360200190f35b3480156103ec57600080fd5b5061026273ffffffffffffffffffffffffffffffffffffffff60043516610a57565b34801561041a57600080fd5b50604080516020600480358082013583810280860185019096528085526100ee95369593946024949385019291829185019084908082843750949750610a989650505050505050565b6100ee73ffffffffffffffffffffffffffffffffffffffff600435166104b2565b34801561049057600080fd5b506100ee73ffffffffffffffffffffffffffffffffffffffff60043516610af2565b600080826104f5816040805190810160405280600981526020017f77686974656c697374000000000000000000000000000000000000000000000081525061069e565b3492506000831161050557600080fd5b60045442101561051457600080fd5b61051c610b1f565b61052583610b7b565b600354604080517f40c10f1900000000000000000000000000000000000000000000000000000000815273ffffffffffffffffffffffffffffffffffffffff88811660048301526024820185905291519395509116916340c10f19916044808201926020929091908290030181600087803b1580156105a357600080fd5b505af11580156105b7573d6000803e3d6000fd5b505050506040513d60208110156105cd57600080fd5b505060025460405173ffffffffffffffffffffffffffffffffffffffff9091169084156108fc029085906000818181858888f19350505050158015610616573d6000803e3d6000fd5b5060085461062a908363ffffffff610c5216565b600855600754610640908463ffffffff610c5216565b6007556040805184815260208101849052815173ffffffffffffffffffffffffffffffffffffffff87169233927f623b3804fa71d67900d064613da8f94b9617215ee90799290593e1745087ad18929081900390910190a350505050565b610708826001836040518082805190602001908083835b602083106106d45780518252601f1990920191602091820191016106b5565b51815160209384036101000a6000190180199092169116179052920194855250604051938490030190922092915050610c5f565b5050565b60408051808201909152600981527f77686974656c6973740000000000000000000000000000000000000000000000602082015281565b60006107af836001846040518082805190602001908083835b6020831061077b5780518252601f19909201916020918201910161075c565b51815160209384036101000a6000190180199092169116179052920194855250604051938490030190922092915050610c74565b90505b92915050565b6000805473ffffffffffffffffffffffffffffffffffffffff1633146107dd57600080fd5b5060005b81518110156107085761080a82828151811015156107fb57fe5b90602001906020020151610812565b6001016107e1565b60005473ffffffffffffffffffffffffffffffffffffffff16331461083657600080fd5b610875816040805190810160405280600981526020017f77686974656c6973740000000000000000000000000000000000000000000000815250610ca0565b50565b60075481565b60085481565b60008061088f610dbe565b60055460ff160190506108a06108dc565b8201915060018110156108be576a0cd240af0568633f800000820191505b60028110156108d8576a013dce87f124cf8a000000820191505b5090565b60008060006108e9610dbe565b91508115156108fc576006549250610942565b5060055460ff1681016001811415610921576a0cd240af0568633f8000009250610942565b806002141561093d576a013dce87f124cf8a0000009250610942565b600092505b505090565b60005473ffffffffffffffffffffffffffffffffffffffff16331461096b57600080fd5b6000805460405173ffffffffffffffffffffffffffffffffffffffff909116917ff8df31144d9c2f0f6b59d69b8b98abd5459d07f2742c4df920b25aae33c6482091a2600080547fffffffffffffffffffffffff0000000000000000000000000000000000000000169055565b60005473ffffffffffffffffffffffffffffffffffffffff1633146109fc57600080fd5b610875816040805190810160405280600981526020017f77686974656c6973740000000000000000000000000000000000000000000000815250610de3565b60005473ffffffffffffffffffffffffffffffffffffffff1681565b60006107b2826040805190810160405280600981526020017f77686974656c6973740000000000000000000000000000000000000000000000815250610743565b6000805473ffffffffffffffffffffffffffffffffffffffff163314610abd57600080fd5b5060005b815181101561070857610aea8282815181101515610adb57fe5b906020019060200201516109d8565b600101610ac1565b60005473ffffffffffffffffffffffffffffffffffffffff163314610b1657600080fd5b61087581610ec2565b6000610b29610dbe565b600554909150600360ff909116820110610b4257600080fd5b6000811115610875576005805460ff80821684011660ff1990911617905560048054621275008302019055610b75610f71565b60065550565b60008060005b6000841115610c4b57600554600360ff90911610610b9e57600080fd5b610ba784610fd8565b9150600654821115610bd057610bbe600654611003565b9050610bc981610fd8565b9150610bd3565b50825b600654610be6908363ffffffff61102116565b600655610bf36001610fd8565b6006541015610c22576005805460ff8082166001011660ff1990911617905542600455610c1e610f71565b6006555b610c32838363ffffffff610c5216565b9250610c44848263ffffffff61102116565b9350610b81565b5050919050565b818101828110156107b257fe5b610c698282610c74565b151561070857600080fd5b73ffffffffffffffffffffffffffffffffffffffff166000908152602091909152604090205460ff1690565b610d0a826001836040518082805190602001908083835b60208310610cd65780518252601f199092019160209182019101610cb7565b51815160209384036101000a6000190180199092169116179052920194855250604051938490030190922092915050611033565b8173ffffffffffffffffffffffffffffffffffffffff167fd211483f91fc6eff862467f8de606587a30c8fc9981056f051b897a418df803a826040518080602001828103825283818151815260200191508051906020019080838360005b83811015610d80578181015183820152602001610d68565b50505050905090810190601f168015610dad5780820380516001836020036101000a031916815260200191505b509250505060405180910390a25050565b6000600454421015610dd257506000610de0565b600454621275009042030490505b90565b610e4d826001836040518082805190602001908083835b60208310610e195780518252601f199092019160209182019101610dfa565b51815160209384036101000a6000190180199092169116179052920194855250604051938490030190922092915050611062565b8173ffffffffffffffffffffffffffffffffffffffff167fbfec83d64eaa953f2708271a023ab9ee82057f8f3578d548c1a4ba0b5b7004898260405180806020018281038252838181518152602001915080519060200190808383600083811015610d80578181015183820152602001610d68565b73ffffffffffffffffffffffffffffffffffffffff81161515610ee457600080fd5b6000805460405173ffffffffffffffffffffffffffffffffffffffff808516939216917f8be0079c531659141344cd1fd0a4f28419497f9722a3daafe3b4186f6b6457e091a3600080547fffffffffffffffffffffffff00000000000000000000000000000000000000001673ffffffffffffffffffffffffffffffffffffffff92909216919091179055565b60055460009060ff161515610f9257506a24655cc78b38d7ac000000610de0565b60055460ff1660011415610fb257506a0cd240af0568633f800000610de0565b60055460ff1660021415610fd257506a013dce87f124cf8a000000610de0565b50600090565b60006107b2600a610ff7610fea611094565b859063ffffffff6110d616565b9063ffffffff6110ff16565b60006107b2611010611094565b610ff784600a63ffffffff6110d616565b60008282111561102d57fe5b50900390565b73ffffffffffffffffffffffffffffffffffffffff16600090815260209190915260409020805460ff19169055565b73ffffffffffffffffffffffffffffffffffffffff16600090815260209190915260409020805460ff19166001179055565b60055460009060ff1615156110ab575060b0610de0565b60055460ff16600114156110c15750607c610de0565b60055460ff166002146110d057fe5b50607090565b60008215156110e7575060006107b2565b508181028183828115156110f757fe5b04146107b257fe5b6000818381151561110c57fe5b0493925050505600a165627a7a723058207cae608a4728c584d9007c29b3847fb566b4f1dd8972792c280e7b525f0cdd3f0029",
  "source": "// Copyright 2018 Stichting BlockMedx\n\npragma solidity ^0.4.24;\n\nimport \"openzeppelin-solidity/contracts/math/SafeMath.sol\";\nimport \"openzeppelin-solidity/contracts/access/Whitelist.sol\";\nimport \"openzeppelin-solidity/contracts/token/ERC20/MintableToken.sol\";\n\n/// @title Crowdsale for MDX tokens\n/// @author Stichting BlockMedx\ncontract MDXCrowdsale is Whitelist {\n\n    using SafeMath for uint256;\n\n    event TokenPurchase(\n        address indexed purchaser,\n        address indexed beneficiary,\n        uint256 value,\n        uint256 amount\n    );\n\n    uint private constant SALE_PHASE_TIME = 2 weeks;\n    uint8 private constant NUM_PHASES = 3;\n\n    // Purchaseable amounts\n    uint256 private constant PRESALE_AMOUNT = 44000000 ether;\n    uint256 private constant PHASE1_AMOUNT = 15500000 ether;\n    uint256 private constant PHASE2_AMOUNT = 1500800 ether;\n\n    // Phase MDX per 10 wei\n    uint256 private constant PRESALE_MDX_PER_WEI_AMT = 176;\n    uint256 private constant PHASE1_MDX_PER_WEI_AMT = 124;\n    uint256 private constant PHASE2_MDX_PER_WEI_AMT = 112;\n\n    uint private constant WEI_PER_MDX_AMT = 10;\n\n    // Constructor constant state variables\n    address private wallet;\n    MintableToken private token;\n\n    // State variables\n    uint private phaseStartTime;\n    uint8 private phase = 0;\n    uint256 private mdxRemaining;\n\n    // Public variables\n    uint256 public weiRaised;\n    uint256 public tokensSold;\n\n    // Note that the rate parameter is unused due to seperate price logic\n    constructor(uint _start, address _wallet, MintableToken _token) public {\n        wallet = _wallet;\n        token = _token;\n        phaseStartTime = _start;\n        mdxRemaining = _getPhaseTotalMdxAmt();\n    }\n\n    /// @notice Buys MDX tokens from sent WAN and provides them to the sender.\n    function() external payable {\n        buyTokens(msg.sender);\n    }\n\n    /// @notice Buys MDX tokens from sent WAN.\n    /// @param _to The recipient address for the MDX tokens\n    function buyTokens(address _to) public payable onlyIfWhitelisted(_to) {\n\n        uint256 weiAmount = msg.value;\n\n        require(weiAmount > 0);\n        require(now >= phaseStartTime);\n\n        _movePhaseAccordingToTime();\n        uint256 tokens = _collectMdxToBuy(weiAmount);\n\n        token.mint(_to, tokens);\n        wallet.transfer(weiAmount);\n\n        tokensSold = tokensSold.add(tokens);\n        weiRaised = weiRaised.add(weiAmount);\n\n        emit TokenPurchase(msg.sender, _to, weiAmount, tokens);\n\n    }\n\n    /// @notice Gets the total amount of tokens remaining available for sale.\n    /// @return The amount of remaining tokens in units.\n    function totalRemainingTokens() public view returns (uint256 remaining) {\n\n        uint realPhase = phase + _getPhaseMovement();\n\n        remaining += roundRemainingTokens();\n\n        if (realPhase < 1)\n            remaining += PHASE1_AMOUNT;\n\n        if (realPhase < 2)\n            remaining += PHASE2_AMOUNT;\n\n    }\n    /// @notice Gets the amount of tokens remaining available for sale in the\n    /// current round.\n    /// @return The amount of remaining tokens in units.\n    function roundRemainingTokens() public view returns (uint256 remaining) {\n\n        uint movement = _getPhaseMovement();\n\n        if (movement == 0)\n            return mdxRemaining;\n\n        uint realPhase = phase + movement;\n\n        if (realPhase == 1)\n            return PHASE1_AMOUNT;\n\n        if (realPhase == 2)\n            return PHASE2_AMOUNT;\n\n        return 0;\n\n    }\n\n    // Gets the amount of MDX per 10 wei\n    function _getPhaseMdxPerWeiAmt() internal view returns (uint) {\n\n        if (phase == 0)\n            return PRESALE_MDX_PER_WEI_AMT;\n        if (phase == 1)\n            return PHASE1_MDX_PER_WEI_AMT;\n\n        assert(phase == 2);\n        return PHASE2_MDX_PER_WEI_AMT;\n\n    }\n\n    // Get total available MDX of phase\n    function _getPhaseTotalMdxAmt() internal view returns (uint) {\n\n        if (phase == 0)\n            return PRESALE_AMOUNT;\n        if (phase == 1)\n            return PHASE1_AMOUNT;\n        if (phase == 2)\n            return PHASE2_AMOUNT;\n\n        return 0;\n\n    }\n\n    function _movePhaseAccordingToTime() internal {\n        // If the current time is past the current phase, move onto the correct\n        // phase\n\n        uint toMove = _getPhaseMovement();\n\n        require(phase + toMove < NUM_PHASES);\n\n        if (toMove > 0) {\n            phase += uint8(toMove);\n            phaseStartTime += SALE_PHASE_TIME * toMove;\n            mdxRemaining = _getPhaseTotalMdxAmt();\n        }\n\n    }\n\n    function _collectMdxToBuy(\n        uint256 _weiAmount\n    ) internal returns (uint256 mdxBought) {\n\n        while (_weiAmount > 0) {\n            // Obtain tokens until wei is spent\n\n            // We can only purchase tokens when we are within one of the\n            // available phases\n            require(phase < NUM_PHASES);\n\n            uint toBuy = _getPhaseMdxAmount(_weiAmount);\n\n            uint weiUsed;\n\n            if (toBuy > mdxRemaining) {\n                // Limit the amount that can be bought in this phase\n                weiUsed = _getPhaseWeiAmount(mdxRemaining);\n                toBuy = _getPhaseMdxAmount(weiUsed);\n            } else\n                // Managed to use up remaining wei in this phase\n                weiUsed = _weiAmount;\n\n            mdxRemaining = mdxRemaining.sub(toBuy);\n\n            if (mdxRemaining < _getPhaseMdxAmount(1)) {\n                // Purchased all tokens in this phase or the amount remaining is\n                // too small to be purchased, so move to next phase\n                phase++;\n                phaseStartTime = now;\n                mdxRemaining = _getPhaseTotalMdxAmt();\n            }\n\n            mdxBought = mdxBought.add(toBuy);\n            _weiAmount = _weiAmount.sub(weiUsed);\n\n        }\n\n    }\n\n    function _getPhaseMovement() internal view returns (uint) {\n\n        if (now < phaseStartTime)\n            return 0;\n\n        return (now - phaseStartTime) / SALE_PHASE_TIME;\n\n    }\n\n    function _getPhaseMdxAmount(\n        uint256 _weiAmount\n    ) internal view returns (uint256) {\n        return _weiAmount.mul(_getPhaseMdxPerWeiAmt()).div(WEI_PER_MDX_AMT);\n    }\n\n    function _getPhaseWeiAmount(\n        uint256 _tokens\n    ) internal view returns (uint256) {\n        return _tokens.mul(WEI_PER_MDX_AMT).div(_getPhaseMdxPerWeiAmt());\n    }\n\n}\n\n",
  "sourcePath": "/Users/marioanorganism/Documents/BlockMedx/blockmedx-token/contracts/MDXCrowdsale.sol",
  "compiler": {
    "name": "solc",
    "version": "0.4.24+commit.e67f0147.Emscripten.clang"
  },
  "schemaVersion": "2.0.0",
  "updatedAt": "2018-09-24T14:42:50.572Z"
}