{
  "contractName": "MDXCrowdsale",
  "abi": [
    {
      "constant": true,
      "inputs": [
        {
          "name": "_operator",
          "type": "address"
        },
        {
          "name": "_role",
          "type": "string"
        }
      ],
      "name": "checkRole",
      "outputs": [],
      "payable": false,
      "stateMutability": "view",
      "type": "function"
    },
    {
      "constant": true,
      "inputs": [],
      "name": "ROLE_WHITELISTED",
      "outputs": [
        {
          "name": "",
          "type": "string"
        }
      ],
      "payable": false,
      "stateMutability": "view",
      "type": "function"
    },
    {
      "constant": true,
      "inputs": [
        {
          "name": "_operator",
          "type": "address"
        },
        {
          "name": "_role",
          "type": "string"
        }
      ],
      "name": "hasRole",
      "outputs": [
        {
          "name": "",
          "type": "bool"
        }
      ],
      "payable": false,
      "stateMutability": "view",
      "type": "function"
    },
    {
      "constant": false,
      "inputs": [
        {
          "name": "_operators",
          "type": "address[]"
        }
      ],
      "name": "removeAddressesFromWhitelist",
      "outputs": [],
      "payable": false,
      "stateMutability": "nonpayable",
      "type": "function"
    },
    {
      "constant": false,
      "inputs": [
        {
          "name": "_operator",
          "type": "address"
        }
      ],
      "name": "removeAddressFromWhitelist",
      "outputs": [],
      "payable": false,
      "stateMutability": "nonpayable",
      "type": "function"
    },
    {
      "constant": true,
      "inputs": [],
      "name": "weiRaised",
      "outputs": [
        {
          "name": "",
          "type": "uint256"
        }
      ],
      "payable": false,
      "stateMutability": "view",
      "type": "function"
    },
    {
      "constant": true,
      "inputs": [],
      "name": "tokensSold",
      "outputs": [
        {
          "name": "",
          "type": "uint256"
        }
      ],
      "payable": false,
      "stateMutability": "view",
      "type": "function"
    },
    {
      "constant": false,
      "inputs": [],
      "name": "renounceOwnership",
      "outputs": [],
      "payable": false,
      "stateMutability": "nonpayable",
      "type": "function"
    },
    {
      "constant": false,
      "inputs": [
        {
          "name": "_operator",
          "type": "address"
        }
      ],
      "name": "addAddressToWhitelist",
      "outputs": [],
      "payable": false,
      "stateMutability": "nonpayable",
      "type": "function"
    },
    {
      "constant": true,
      "inputs": [],
      "name": "owner",
      "outputs": [
        {
          "name": "",
          "type": "address"
        }
      ],
      "payable": false,
      "stateMutability": "view",
      "type": "function"
    },
    {
      "constant": true,
      "inputs": [
        {
          "name": "_operator",
          "type": "address"
        }
      ],
      "name": "whitelist",
      "outputs": [
        {
          "name": "",
          "type": "bool"
        }
      ],
      "payable": false,
      "stateMutability": "view",
      "type": "function"
    },
    {
      "constant": false,
      "inputs": [
        {
          "name": "_operators",
          "type": "address[]"
        }
      ],
      "name": "addAddressesToWhitelist",
      "outputs": [],
      "payable": false,
      "stateMutability": "nonpayable",
      "type": "function"
    },
    {
      "constant": false,
      "inputs": [
        {
          "name": "_newOwner",
          "type": "address"
        }
      ],
      "name": "transferOwnership",
      "outputs": [],
      "payable": false,
      "stateMutability": "nonpayable",
      "type": "function"
    },
    {
      "inputs": [
        {
          "name": "_start",
          "type": "uint256"
        },
        {
          "name": "_wallet",
          "type": "address"
        },
        {
          "name": "_token",
          "type": "address"
        }
      ],
      "payable": false,
      "stateMutability": "nonpayable",
      "type": "constructor"
    },
    {
      "payable": true,
      "stateMutability": "payable",
      "type": "fallback"
    },
    {
      "anonymous": false,
      "inputs": [
        {
          "indexed": true,
          "name": "purchaser",
          "type": "address"
        },
        {
          "indexed": true,
          "name": "beneficiary",
          "type": "address"
        },
        {
          "indexed": false,
          "name": "value",
          "type": "uint256"
        },
        {
          "indexed": false,
          "name": "amount",
          "type": "uint256"
        }
      ],
      "name": "TokenPurchase",
      "type": "event"
    },
    {
      "anonymous": false,
      "inputs": [
        {
          "indexed": true,
          "name": "operator",
          "type": "address"
        },
        {
          "indexed": false,
          "name": "role",
          "type": "string"
        }
      ],
      "name": "RoleAdded",
      "type": "event"
    },
    {
      "anonymous": false,
      "inputs": [
        {
          "indexed": true,
          "name": "operator",
          "type": "address"
        },
        {
          "indexed": false,
          "name": "role",
          "type": "string"
        }
      ],
      "name": "RoleRemoved",
      "type": "event"
    },
    {
      "anonymous": false,
      "inputs": [
        {
          "indexed": true,
          "name": "previousOwner",
          "type": "address"
        }
      ],
      "name": "OwnershipRenounced",
      "type": "event"
    },
    {
      "anonymous": false,
      "inputs": [
        {
          "indexed": true,
          "name": "previousOwner",
          "type": "address"
        },
        {
          "indexed": true,
          "name": "newOwner",
          "type": "address"
        }
      ],
      "name": "OwnershipTransferred",
      "type": "event"
    },
    {
      "constant": false,
      "inputs": [
        {
          "name": "_to",
          "type": "address"
        }
      ],
      "name": "buyTokens",
      "outputs": [],
      "payable": true,
      "stateMutability": "payable",
      "type": "function"
    },
    {
      "constant": true,
      "inputs": [],
      "name": "totalRemainingTokens",
      "outputs": [
        {
          "name": "remaining",
          "type": "uint256"
        }
      ],
      "payable": false,
      "stateMutability": "view",
      "type": "function"
    },
    {
      "constant": true,
      "inputs": [],
      "name": "roundRemainingTokens",
      "outputs": [
        {
          "name": "",
          "type": "uint256"
        }
      ],
      "payable": false,
      "stateMutability": "view",
      "type": "function"
    },
    {
      "constant": true,
      "inputs": [],
      "name": "roundRemainingTime",
      "outputs": [
        {
          "name": "",
          "type": "uint256"
        }
      ],
      "payable": false,
      "stateMutability": "view",
      "type": "function"
    },
    {
      "constant": true,
      "inputs": [],
      "name": "currentRound",
      "outputs": [
        {
          "name": "",
          "type": "uint8"
        }
      ],
      "payable": false,
      "stateMutability": "view",
      "type": "function"
    },
    {
      "constant": true,
      "inputs": [],
      "name": "getInfo",
      "outputs": [
        {
          "name": "totalRemaining",
          "type": "uint256"
        },
        {
          "name": "roundRemaining",
          "type": "uint256"
        },
        {
          "name": "roundTimeRemaining",
          "type": "uint256"
        },
        {
          "name": "current",
          "type": "uint8"
        }
      ],
      "payable": false,
      "stateMutability": "view",
      "type": "function"
    }
  ],
  "bytecode": "0x60806040526005805460ff1916905534801561001a57600080fd5b5060405160608061151f8339810160409081528151602083015191909201516000805433600160a060020a031991821617909155600280548216600160a060020a0380861691909117909155600380549092169083161790556004839055610089640100000000610095810204565b600655506100fd915050565b60055460009060ff1615156100b657506a24655cc78b38d7ac0000006100fa565b60055460ff16600114156100d657506a0cd240af0568633f8000006100fa565b60055460ff16600214156100f657506a013dce87f124cf8a0000006100fa565b5060005b90565b6114138061010c6000396000f3006080604052600436106101065763ffffffff7c01000000000000000000000000000000000000000000000000000000006000350416630988ca8c811461011157806318b919e914610185578063217fe6c61461020f57806324953eaa14610297578063286dd3f5146102ec5780634042b66f1461031a578063518ab2a814610341578063583f18ff146103565780635a9b0b891461036b5780636d0795e7146103a9578063715018a6146103be5780637b9417c8146103d35780638a19c8bc146104015780638da5cb5b1461042c5780639b19251a1461046a578063e2ec6ec314610498578063ec8ac4d8146104ed578063f2fde38b1461050e578063fb3926721461053c575b61010f33610551565b005b34801561011d57600080fd5b5060408051602060046024803582810135601f810185900485028601850190965285855261010f95833573ffffffffffffffffffffffffffffffffffffffff1695369560449491939091019190819084018382808284375094975061080a9650505050505050565b34801561019157600080fd5b5061019a610878565b6040805160208082528351818301528351919283929083019185019080838360005b838110156101d45781810151838201526020016101bc565b50505050905090810190601f1680156102015780820380516001836020036101000a031916815260200191505b509250505060405180910390f35b34801561021b57600080fd5b5060408051602060046024803582810135601f810185900485028601850190965285855261028395833573ffffffffffffffffffffffffffffffffffffffff169536956044949193909101919081908401838280828437509497506108af9650505050505050565b604080519115158252519081900360200190f35b3480156102a357600080fd5b506040805160206004803580820135838102808601850190965280855261010f953695939460249493850192918291850190849080828437509497506109249650505050505050565b3480156102f857600080fd5b5061010f73ffffffffffffffffffffffffffffffffffffffff6004351661097e565b34801561032657600080fd5b5061032f6109e4565b60408051918252519081900360200190f35b34801561034d57600080fd5b5061032f6109ea565b34801561036257600080fd5b5061032f6109f0565b34801561037757600080fd5b50610380610a48565b6040805194855260208501939093528383019190915260ff166060830152519081900360800190f35b3480156103b557600080fd5b5061032f610a7c565b3480156103ca57600080fd5b5061010f610ae7565b3480156103df57600080fd5b5061010f73ffffffffffffffffffffffffffffffffffffffff60043516610b78565b34801561040d57600080fd5b50610416610bdb565b6040805160ff9092168252519081900360200190f35b34801561043857600080fd5b50610441610c0f565b6040805173ffffffffffffffffffffffffffffffffffffffff9092168252519081900360200190f35b34801561047657600080fd5b5061028373ffffffffffffffffffffffffffffffffffffffff60043516610c2b565b3480156104a457600080fd5b506040805160206004803580820135838102808601850190965280855261010f95369593946024949385019291829185019084908082843750949750610c6c9650505050505050565b61010f73ffffffffffffffffffffffffffffffffffffffff60043516610551565b34801561051a57600080fd5b5061010f73ffffffffffffffffffffffffffffffffffffffff60043516610cc6565b34801561054857600080fd5b5061032f610cf3565b60008082610594816040805190810160405280600981526020017f77686974656c697374000000000000000000000000000000000000000000000081525061080a565b34925068056bc75e2d6310000083101561060f57604080517f08c379a000000000000000000000000000000000000000000000000000000000815260206004820152601b60248201527f4d696e696d756d207075726368617365206973203130302057414e0000000000604482015290519081900360640190fd5b60045442101561068057604080517f08c379a000000000000000000000000000000000000000000000000000000000815260206004820152601d60248201527f5468652063726f776473616c6520686173206e6f742073746172746564000000604482015290519081900360640190fd5b610688610d36565b61069183610df4565b600354604080517f40c10f1900000000000000000000000000000000000000000000000000000000815273ffffffffffffffffffffffffffffffffffffffff88811660048301526024820185905291519395509116916340c10f19916044808201926020929091908290030181600087803b15801561070f57600080fd5b505af1158015610723573d6000803e3d6000fd5b505050506040513d602081101561073957600080fd5b505060025460405173ffffffffffffffffffffffffffffffffffffffff9091169084156108fc029085906000818181858888f19350505050158015610782573d6000803e3d6000fd5b50600854610796908363ffffffff610f2516565b6008556007546107ac908463ffffffff610f2516565b6007556040805184815260208101849052815173ffffffffffffffffffffffffffffffffffffffff87169233927f623b3804fa71d67900d064613da8f94b9617215ee90799290593e1745087ad18929081900390910190a350505050565b610874826001836040518082805190602001908083835b602083106108405780518252601f199092019160209182019101610821565b51815160209384036101000a6000190180199092169116179052920194855250604051938490030190922092915050610f32565b5050565b60408051808201909152600981527f77686974656c6973740000000000000000000000000000000000000000000000602082015281565b600061091b836001846040518082805190602001908083835b602083106108e75780518252601f1990920191602091820191016108c8565b51815160209384036101000a6000190180199092169116179052920194855250604051938490030190922092915050610f47565b90505b92915050565b6000805473ffffffffffffffffffffffffffffffffffffffff16331461094957600080fd5b5060005b815181101561087457610976828281518110151561096757fe5b9060200190602002015161097e565b60010161094d565b60005473ffffffffffffffffffffffffffffffffffffffff1633146109a257600080fd5b6109e1816040805190810160405280600981526020017f77686974656c6973740000000000000000000000000000000000000000000000815250610f73565b50565b60075481565b60085481565b6000806109fb611091565b60055460ff16019050610a0c610a7c565b820191506001811015610a2a576a0cd240af0568633f800000820191505b6002811015610a44576a013dce87f124cf8a000000820191505b5090565b600080600080610a566109f0565b9350610a60610a7c565b9250610a6a610cf3565b9150610a74610bdb565b905090919293565b6000806000610a89611091565b9150811515610a9c576006549250610ae2565b5060055460ff1681016001811415610ac1576a0cd240af0568633f8000009250610ae2565b8060021415610add576a013dce87f124cf8a0000009250610ae2565b600092505b505090565b60005473ffffffffffffffffffffffffffffffffffffffff163314610b0b57600080fd5b6000805460405173ffffffffffffffffffffffffffffffffffffffff909116917ff8df31144d9c2f0f6b59d69b8b98abd5459d07f2742c4df920b25aae33c6482091a2600080547fffffffffffffffffffffffff0000000000000000000000000000000000000000169055565b60005473ffffffffffffffffffffffffffffffffffffffff163314610b9c57600080fd5b6109e1816040805190810160405280600981526020017f77686974656c69737400000000000000000000000000000000000000000000008152506110b6565b600080610be6611091565b600554909150600360ff909116820110610c035760039150610a44565b60055460ff1601919050565b60005473ffffffffffffffffffffffffffffffffffffffff1681565b600061091e826040805190810160405280600981526020017f77686974656c69737400000000000000000000000000000000000000000000008152506108af565b6000805473ffffffffffffffffffffffffffffffffffffffff163314610c9157600080fd5b5060005b815181101561087457610cbe8282815181101515610caf57fe5b90602001906020020151610b78565b600101610c95565b60005473ffffffffffffffffffffffffffffffffffffffff163314610cea57600080fd5b6109e181611195565b6000806000610d00611091565b600554909250600360ff909116830110610d1d5760009250610ae2565b8160010162127500026004540190504281039250505090565b6000610d40611091565b600554909150600360ff909116820110610dbb57604080517f08c379a000000000000000000000000000000000000000000000000000000000815260206004820152601760248201527f5468652063726f776473616c652068617320656e646564000000000000000000604482015290519081900360640190fd5b60008111156109e1576005805460ff80821684011660ff1990911617905560048054621275008302019055610dee611244565b60065550565b60008060005b6000841115610f1e57600554600360ff90911610610e7957604080517f08c379a000000000000000000000000000000000000000000000000000000000815260206004820152601f60248201527f4e6f20746f6b656e732072656d61696e696e6720746f20707572636861736500604482015290519081900360640190fd5b610e82846112ab565b9150600654821115610ea3576006549150610e9c826112d6565b9050610ea6565b50825b600654610eb9908363ffffffff6112f416565b600655610ec660016112ab565b6006541015610ef5576005805460ff8082166001011660ff1990911617905542600455610ef1611244565b6006555b610f05838363ffffffff610f2516565b9250610f17848263ffffffff6112f416565b9350610dfa565b5050919050565b8181018281101561091e57fe5b610f3c8282610f47565b151561087457600080fd5b73ffffffffffffffffffffffffffffffffffffffff166000908152602091909152604090205460ff1690565b610fdd826001836040518082805190602001908083835b60208310610fa95780518252601f199092019160209182019101610f8a565b51815160209384036101000a6000190180199092169116179052920194855250604051938490030190922092915050611306565b8173ffffffffffffffffffffffffffffffffffffffff167fd211483f91fc6eff862467f8de606587a30c8fc9981056f051b897a418df803a826040518080602001828103825283818151815260200191508051906020019080838360005b8381101561105357818101518382015260200161103b565b50505050905090810190601f1680156110805780820380516001836020036101000a031916815260200191505b509250505060405180910390a25050565b60006004544210156110a5575060006110b3565b600454621275009042030490505b90565b611120826001836040518082805190602001908083835b602083106110ec5780518252601f1990920191602091820191016110cd565b51815160209384036101000a6000190180199092169116179052920194855250604051938490030190922092915050611335565b8173ffffffffffffffffffffffffffffffffffffffff167fbfec83d64eaa953f2708271a023ab9ee82057f8f3578d548c1a4ba0b5b700489826040518080602001828103825283818151815260200191508051906020019080838360008381101561105357818101518382015260200161103b565b73ffffffffffffffffffffffffffffffffffffffff811615156111b757600080fd5b6000805460405173ffffffffffffffffffffffffffffffffffffffff808516939216917f8be0079c531659141344cd1fd0a4f28419497f9722a3daafe3b4186f6b6457e091a3600080547fffffffffffffffffffffffff00000000000000000000000000000000000000001673ffffffffffffffffffffffffffffffffffffffff92909216919091179055565b60055460009060ff16151561126557506a24655cc78b38d7ac0000006110b3565b60055460ff166001141561128557506a0cd240af0568633f8000006110b3565b60055460ff16600214156112a557506a013dce87f124cf8a0000006110b3565b50600090565b600061091e600a6112ca6112bd611367565b859063ffffffff6113a916565b9063ffffffff6113d216565b600061091e6112e3611367565b6112ca84600a63ffffffff6113a916565b60008282111561130057fe5b50900390565b73ffffffffffffffffffffffffffffffffffffffff16600090815260209190915260409020805460ff19169055565b73ffffffffffffffffffffffffffffffffffffffff16600090815260209190915260409020805460ff19166001179055565b60055460009060ff16151561137e575060b06110b3565b60055460ff16600114156113945750607c6110b3565b60055460ff166002146113a357fe5b50607090565b60008215156113ba5750600061091e565b508181028183828115156113ca57fe5b041461091e57fe5b600081838115156113df57fe5b0493925050505600a165627a7a723058201c160f9d1ea5adcfe68f527864a0874c2d8c9352d6351cd94e23955491c7ee060029",
  "source": "// Copyright 2018 Stichting BlockMedx\n\npragma solidity ^0.4.24;\n\nimport \"openzeppelin-solidity/contracts/math/SafeMath.sol\";\nimport \"openzeppelin-solidity/contracts/access/Whitelist.sol\";\nimport \"openzeppelin-solidity/contracts/token/ERC20/MintableToken.sol\";\n\n/// @title Crowdsale for MDX tokens\n/// @author Stichting BlockMedx\ncontract MDXCrowdsale is Whitelist {\n\n    using SafeMath for uint256;\n\n    event TokenPurchase(\n        address indexed purchaser,\n        address indexed beneficiary,\n        uint256 value,\n        uint256 amount\n    );\n\n    uint private constant SALE_PHASE_TIME = 2 weeks;\n    uint8 private constant NUM_PHASES = 3;\n    uint256 private constant MIN_PURCHASE = 100 ether;\n\n    // Purchaseable amounts\n    uint256 private constant PRESALE_AMOUNT = 44000000 ether;\n    uint256 private constant PHASE1_AMOUNT = 15500000 ether;\n    uint256 private constant PHASE2_AMOUNT = 1500800 ether;\n\n    // Round MDX per 10 wei\n    uint256 private constant PRESALE_MDX_PER_WEI_AMT = 176;\n    uint256 private constant PHASE1_MDX_PER_WEI_AMT = 124;\n    uint256 private constant PHASE2_MDX_PER_WEI_AMT = 112;\n\n    uint private constant WEI_PER_MDX_AMT = 10;\n\n    // Constructor constant state variables\n    address private wallet;\n    MintableToken private token;\n\n    // State variables\n    uint private roundStartTime;\n    uint8 private round = 0;\n    uint256 private mdxRemaining;\n\n    // Public variables\n    uint256 public weiRaised;\n    uint256 public tokensSold;\n\n    // Note that the rate parameter is unused due to seperate price logic\n    constructor(uint _start, address _wallet, MintableToken _token) public {\n        wallet = _wallet;\n        token = _token;\n        roundStartTime = _start;\n        mdxRemaining = _getRoundTotalMdxAmt();\n    }\n\n    /// @notice Buys MDX tokens from sent WAN and provides them to the sender.\n    function() external payable {\n        buyTokens(msg.sender);\n    }\n\n    /// @notice Buys MDX tokens from sent WAN.\n    /// @param _to The recipient address for the MDX tokens\n    function buyTokens(address _to) public payable onlyIfWhitelisted(_to) {\n\n        uint256 weiAmount = msg.value;\n\n        require(weiAmount >= MIN_PURCHASE, \"Minimum purchase is 100 WAN\");\n        require(now >= roundStartTime, \"The crowdsale has not started\");\n\n        _moveRoundAccordingToTime();\n        uint256 tokens = _collectMdxToBuy(weiAmount);\n\n        token.mint(_to, tokens);\n        wallet.transfer(weiAmount);\n\n        tokensSold = tokensSold.add(tokens);\n        weiRaised = weiRaised.add(weiAmount);\n\n        emit TokenPurchase(msg.sender, _to, weiAmount, tokens);\n\n    }\n\n    /// @notice Gets the total amount of tokens remaining available for sale.\n    /// @return The amount of remaining tokens in units.\n    function totalRemainingTokens() public view returns (uint256 remaining) {\n\n        uint realRound = round + _getRoundMovement();\n\n        remaining += roundRemainingTokens();\n\n        if (realRound < 1)\n            remaining += PHASE1_AMOUNT;\n\n        if (realRound < 2)\n            remaining += PHASE2_AMOUNT;\n\n    }\n\n    /// @notice Gets the amount of tokens remaining available for sale in the\n    /// current round.\n    /// @return The amount of remaining tokens in units.\n    function roundRemainingTokens() public view returns (uint256) {\n\n        uint movement = _getRoundMovement();\n\n        if (movement == 0)\n            return mdxRemaining;\n\n        uint realRound = round + movement;\n\n        if (realRound == 1)\n            return PHASE1_AMOUNT;\n\n        if (realRound == 2)\n            return PHASE2_AMOUNT;\n\n        return 0;\n\n    }\n\n    /// @notice Gets the amount of seconds left in the current round\n    /// @return The amount of time remaining for the current round in seconds\n    function roundRemainingTime() public view returns (uint256) {\n\n        uint movement = _getRoundMovement();\n\n        if (round + movement >= NUM_PHASES)\n            return 0;\n\n        uint256 endTime = roundStartTime + SALE_PHASE_TIME * (movement + 1);\n\n        return endTime - now;\n\n    }\n\n    /// @notice Gets the current round\n    /// @return The current round starting from 0 (presale)\n    function currentRound() public view returns (uint8) {\n\n        uint movement = _getRoundMovement();\n\n        if (round + movement >= NUM_PHASES)\n            return NUM_PHASES;\n\n        return round + uint8(movement);\n\n    }\n\n    /// @notice Atomically obtains the current crowdsale status\n    /// @return Total remaining tokens, tokens remaining in round, time\n    /// remaining in round and the current round number\n    function getInfo() public view returns (\n        uint256 totalRemaining,\n        uint256 roundRemaining,\n        uint256 roundTimeRemaining,\n        uint8 current\n    ) {\n        totalRemaining = totalRemainingTokens();\n        roundRemaining = roundRemainingTokens();\n        roundTimeRemaining = roundRemainingTime();\n        current = currentRound();\n    }\n\n    // Gets the amount of MDX per 10 wei\n    function _getRoundMdxPerWeiAmt() internal view returns (uint) {\n\n        if (round == 0)\n            return PRESALE_MDX_PER_WEI_AMT;\n        if (round == 1)\n            return PHASE1_MDX_PER_WEI_AMT;\n\n        assert(round == 2);\n        return PHASE2_MDX_PER_WEI_AMT;\n\n    }\n\n    // Get total available MDX of round\n    function _getRoundTotalMdxAmt() internal view returns (uint) {\n\n        if (round == 0)\n            return PRESALE_AMOUNT;\n        if (round == 1)\n            return PHASE1_AMOUNT;\n        if (round == 2)\n            return PHASE2_AMOUNT;\n\n        return 0;\n\n    }\n\n    function _moveRoundAccordingToTime() internal {\n        // If the current time is past the current round, move onto the correct\n        // round\n\n        uint toMove = _getRoundMovement();\n\n        require(round + toMove < NUM_PHASES, \"The crowdsale has ended\");\n\n        if (toMove > 0) {\n            round += uint8(toMove);\n            roundStartTime += SALE_PHASE_TIME * toMove;\n            mdxRemaining = _getRoundTotalMdxAmt();\n        }\n\n    }\n\n    function _collectMdxToBuy(\n        uint256 _weiAmount\n    ) internal returns (uint256 mdxBought) {\n\n        while (_weiAmount > 0) {\n            // Obtain tokens until wei is spent\n\n            // We can only purchase tokens when we are within one of the\n            // available rounds\n            require(round < NUM_PHASES, \"No tokens remaining to purchase\");\n\n            uint toBuy = _getRoundMdxAmount(_weiAmount);\n\n            uint weiUsed;\n\n            if (toBuy > mdxRemaining) {\n                // Limit the amount that can be bought in this round\n                toBuy = mdxRemaining;\n                weiUsed = _getRoundWeiAmount(mdxRemaining);\n            } else\n                // Managed to use up remaining wei in this round\n                weiUsed = _weiAmount;\n\n            mdxRemaining = mdxRemaining.sub(toBuy);\n\n            if (mdxRemaining < _getRoundMdxAmount(1)) {\n                // Purchased all tokens in this round or the amount remaining is\n                // too small to be purchased, so move to next round\n                round++;\n                roundStartTime = now;\n                mdxRemaining = _getRoundTotalMdxAmt();\n            }\n\n            mdxBought = mdxBought.add(toBuy);\n            _weiAmount = _weiAmount.sub(weiUsed);\n\n        }\n\n    }\n\n    function _getRoundMovement() internal view returns (uint) {\n\n        if (now < roundStartTime)\n            return 0;\n\n        return (now - roundStartTime) / SALE_PHASE_TIME;\n\n    }\n\n    function _getRoundMdxAmount(\n        uint256 _weiAmount\n    ) internal view returns (uint256) {\n        return _weiAmount.mul(_getRoundMdxPerWeiAmt()).div(WEI_PER_MDX_AMT);\n    }\n\n    function _getRoundWeiAmount(\n        uint256 _tokens\n    ) internal view returns (uint256) {\n        return _tokens.mul(WEI_PER_MDX_AMT).div(_getRoundMdxPerWeiAmt());\n    }\n\n}\n\n",
  "sourcePath": "/Users/marioanorganism/Documents/BlockMedx/blockmedx-token/contracts/MDXCrowdsale.sol",
  "compiler": {
    "name": "solc",
    "version": "0.4.24+commit.e67f0147.Emscripten.clang"
  },
  "schemaVersion": "2.0.0",
  "updatedAt": "2018-10-02T17:46:51.612Z"
}