{
  "contractName": "MDXToken",
  "abi": [
    {
      "constant": true,
      "inputs": [],
      "name": "mintingFinished",
      "outputs": [
        {
          "name": "",
          "type": "bool"
        }
      ],
      "payable": false,
      "stateMutability": "view",
      "type": "function"
    },
    {
      "constant": true,
      "inputs": [],
      "name": "name",
      "outputs": [
        {
          "name": "",
          "type": "string"
        }
      ],
      "payable": false,
      "stateMutability": "view",
      "type": "function"
    },
    {
      "constant": false,
      "inputs": [
        {
          "name": "_spender",
          "type": "address"
        },
        {
          "name": "_value",
          "type": "uint256"
        }
      ],
      "name": "approve",
      "outputs": [
        {
          "name": "",
          "type": "bool"
        }
      ],
      "payable": false,
      "stateMutability": "nonpayable",
      "type": "function"
    },
    {
      "constant": true,
      "inputs": [],
      "name": "totalSupply",
      "outputs": [
        {
          "name": "",
          "type": "uint256"
        }
      ],
      "payable": false,
      "stateMutability": "view",
      "type": "function"
    },
    {
      "constant": false,
      "inputs": [
        {
          "name": "_from",
          "type": "address"
        },
        {
          "name": "_to",
          "type": "address"
        },
        {
          "name": "_value",
          "type": "uint256"
        }
      ],
      "name": "transferFrom",
      "outputs": [
        {
          "name": "",
          "type": "bool"
        }
      ],
      "payable": false,
      "stateMutability": "nonpayable",
      "type": "function"
    },
    {
      "constant": true,
      "inputs": [],
      "name": "decimals",
      "outputs": [
        {
          "name": "",
          "type": "uint8"
        }
      ],
      "payable": false,
      "stateMutability": "view",
      "type": "function"
    },
    {
      "constant": false,
      "inputs": [
        {
          "name": "_to",
          "type": "address"
        },
        {
          "name": "_amount",
          "type": "uint256"
        }
      ],
      "name": "mint",
      "outputs": [
        {
          "name": "",
          "type": "bool"
        }
      ],
      "payable": false,
      "stateMutability": "nonpayable",
      "type": "function"
    },
    {
      "constant": false,
      "inputs": [
        {
          "name": "_value",
          "type": "uint256"
        }
      ],
      "name": "burn",
      "outputs": [],
      "payable": false,
      "stateMutability": "nonpayable",
      "type": "function"
    },
    {
      "constant": false,
      "inputs": [
        {
          "name": "_spender",
          "type": "address"
        },
        {
          "name": "_subtractedValue",
          "type": "uint256"
        }
      ],
      "name": "decreaseApproval",
      "outputs": [
        {
          "name": "",
          "type": "bool"
        }
      ],
      "payable": false,
      "stateMutability": "nonpayable",
      "type": "function"
    },
    {
      "constant": true,
      "inputs": [
        {
          "name": "_owner",
          "type": "address"
        }
      ],
      "name": "balanceOf",
      "outputs": [
        {
          "name": "",
          "type": "uint256"
        }
      ],
      "payable": false,
      "stateMutability": "view",
      "type": "function"
    },
    {
      "constant": false,
      "inputs": [],
      "name": "renounceOwnership",
      "outputs": [],
      "payable": false,
      "stateMutability": "nonpayable",
      "type": "function"
    },
    {
      "constant": false,
      "inputs": [
        {
          "name": "_from",
          "type": "address"
        },
        {
          "name": "_value",
          "type": "uint256"
        }
      ],
      "name": "burnFrom",
      "outputs": [],
      "payable": false,
      "stateMutability": "nonpayable",
      "type": "function"
    },
    {
      "constant": false,
      "inputs": [],
      "name": "finishMinting",
      "outputs": [
        {
          "name": "",
          "type": "bool"
        }
      ],
      "payable": false,
      "stateMutability": "nonpayable",
      "type": "function"
    },
    {
      "constant": true,
      "inputs": [],
      "name": "owner",
      "outputs": [
        {
          "name": "",
          "type": "address"
        }
      ],
      "payable": false,
      "stateMutability": "view",
      "type": "function"
    },
    {
      "constant": true,
      "inputs": [],
      "name": "symbol",
      "outputs": [
        {
          "name": "",
          "type": "string"
        }
      ],
      "payable": false,
      "stateMutability": "view",
      "type": "function"
    },
    {
      "constant": false,
      "inputs": [
        {
          "name": "_to",
          "type": "address"
        },
        {
          "name": "_value",
          "type": "uint256"
        }
      ],
      "name": "transfer",
      "outputs": [
        {
          "name": "",
          "type": "bool"
        }
      ],
      "payable": false,
      "stateMutability": "nonpayable",
      "type": "function"
    },
    {
      "constant": false,
      "inputs": [
        {
          "name": "_spender",
          "type": "address"
        },
        {
          "name": "_addedValue",
          "type": "uint256"
        }
      ],
      "name": "increaseApproval",
      "outputs": [
        {
          "name": "",
          "type": "bool"
        }
      ],
      "payable": false,
      "stateMutability": "nonpayable",
      "type": "function"
    },
    {
      "constant": true,
      "inputs": [
        {
          "name": "_owner",
          "type": "address"
        },
        {
          "name": "_spender",
          "type": "address"
        }
      ],
      "name": "allowance",
      "outputs": [
        {
          "name": "",
          "type": "uint256"
        }
      ],
      "payable": false,
      "stateMutability": "view",
      "type": "function"
    },
    {
      "constant": false,
      "inputs": [
        {
          "name": "_newOwner",
          "type": "address"
        }
      ],
      "name": "transferOwnership",
      "outputs": [],
      "payable": false,
      "stateMutability": "nonpayable",
      "type": "function"
    },
    {
      "inputs": [],
      "payable": false,
      "stateMutability": "nonpayable",
      "type": "constructor"
    },
    {
      "anonymous": false,
      "inputs": [
        {
          "indexed": true,
          "name": "to",
          "type": "address"
        },
        {
          "indexed": false,
          "name": "amount",
          "type": "uint256"
        }
      ],
      "name": "Mint",
      "type": "event"
    },
    {
      "anonymous": false,
      "inputs": [],
      "name": "MintFinished",
      "type": "event"
    },
    {
      "anonymous": false,
      "inputs": [
        {
          "indexed": true,
          "name": "previousOwner",
          "type": "address"
        }
      ],
      "name": "OwnershipRenounced",
      "type": "event"
    },
    {
      "anonymous": false,
      "inputs": [
        {
          "indexed": true,
          "name": "previousOwner",
          "type": "address"
        },
        {
          "indexed": true,
          "name": "newOwner",
          "type": "address"
        }
      ],
      "name": "OwnershipTransferred",
      "type": "event"
    },
    {
      "anonymous": false,
      "inputs": [
        {
          "indexed": true,
          "name": "burner",
          "type": "address"
        },
        {
          "indexed": false,
          "name": "value",
          "type": "uint256"
        }
      ],
      "name": "Burn",
      "type": "event"
    },
    {
      "anonymous": false,
      "inputs": [
        {
          "indexed": true,
          "name": "owner",
          "type": "address"
        },
        {
          "indexed": true,
          "name": "spender",
          "type": "address"
        },
        {
          "indexed": false,
          "name": "value",
          "type": "uint256"
        }
      ],
      "name": "Approval",
      "type": "event"
    },
    {
      "anonymous": false,
      "inputs": [
        {
          "indexed": true,
          "name": "from",
          "type": "address"
        },
        {
          "indexed": true,
          "name": "to",
          "type": "address"
        },
        {
          "indexed": false,
          "name": "value",
          "type": "uint256"
        }
      ],
      "name": "Transfer",
      "type": "event"
    }
  ],
  "bytecode": "0x60806040526003805460a060020a60ff02191690553480156200002157600080fd5b50604080518082018252600f81527f426c6f636b4d65647820546f6b656e00000000000000000000000000000000006020808301918252835180850190945260038085527f4d44580000000000000000000000000000000000000000000000000000000000918501919091528054600160a060020a031916331790558151919291601291620000b4916004919062000398565b508151620000ca90600590602085019062000398565b506006805460ff191660ff9290921691909117905550620001169050732dbcdf86a85076efbe66957eea1fe9459c80e3dc6a21165458500521280000006401000000006200029c810204565b6200014a73ea95d42b9de15fb68e0185056c9b49bba70cceac6a27b46536c66c8e300000006401000000006200029c810204565b6200017e734cea486b33be32e9d6b7364fb9a6e44826a776fc6a115ec0e9bbde131c8000006401000000006200029c810204565b620001b273f5f228d6674fe4cbd70b0035728528c435417c386a14e2e53e25b670214000006401000000006200029c810204565b620001e673f76f3155f1f5b4e7a1b4ea3a52dd08654e82f6f36a03b8e97d229a2d548000006401000000006200029c810204565b6200021973da03ff825eb2306cbddc85a40fd774cd8f5ab689690fe1c215e8f838e000006401000000006200029c810204565b6200024c73ce689935c7b2f37b59e6399199c8cd3f31f1a95169054b40b1f852bda000006401000000006200029c810204565b6200027f73b76563d7707b2289714a2385377d606da13e673e691fc3842bd1f071c000006401000000006200029c810204565b6001546a72fa39bb0e539b52800000146200029657fe5b6200043d565b600154620002b9908264010000000062000f2c6200038482021704565b600155600160a060020a038216600090815260208190526040902054620002ef908264010000000062000f2c6200038482021704565b600160a060020a03831660008181526020818152604091829020939093558051848152905191927f0f6798a560793a54c3bcfe86a93cde1e73087d944c0ea20544137d412139688592918290030190a2604080518281529051600160a060020a038416916000917fddf252ad1be2c89b69c2b068fc378daa952ba7f163c4a11628f55a4df523b3ef9181900360200190a35050565b818101828110156200039257fe5b92915050565b828054600181600116156101000203166002900490600052602060002090601f016020900481019282601f10620003db57805160ff19168380011785556200040b565b828001600101855582156200040b579182015b828111156200040b578251825591602001919060010190620003ee565b50620004199291506200041d565b5090565b6200043a91905b8082111562000419576000815560010162000424565b90565b61115d806200044d6000396000f3006080604052600436106101065763ffffffff7c010000000000000000000000000000000000000000000000000000000060003504166305d2035b811461010b57806306fdde0314610134578063095ea7b3146101be57806318160ddd146101ef57806323b872dd14610216578063313ce5671461024d57806340c10f191461027857806342966c68146102a957806366188463146102c357806370a08231146102f4578063715018a61461032257806379cc6790146103375780637d64bcb4146103685780638da5cb5b1461037d57806395d89b41146103bb578063a9059cbb146103d0578063d73dd62314610401578063dd62ed3e14610432578063f2fde38b14610466575b600080fd5b34801561011757600080fd5b50610120610494565b604080519115158252519081900360200190f35b34801561014057600080fd5b506101496104b5565b6040805160208082528351818301528351919283929083019185019080838360005b8381101561018357818101518382015260200161016b565b50505050905090810190601f1680156101b05780820380516001836020036101000a031916815260200191505b509250505060405180910390f35b3480156101ca57600080fd5b5061012073ffffffffffffffffffffffffffffffffffffffff60043516602435610561565b3480156101fb57600080fd5b506102046105d4565b60408051918252519081900360200190f35b34801561022257600080fd5b5061012073ffffffffffffffffffffffffffffffffffffffff600435811690602435166044356105da565b34801561025957600080fd5b506102626107aa565b6040805160ff9092168252519081900360200190f35b34801561028457600080fd5b5061012073ffffffffffffffffffffffffffffffffffffffff600435166024356107b3565b3480156102b557600080fd5b506102c1600435610902565b005b3480156102cf57600080fd5b5061012073ffffffffffffffffffffffffffffffffffffffff6004351660243561090f565b34801561030057600080fd5b5061020473ffffffffffffffffffffffffffffffffffffffff60043516610a32565b34801561032e57600080fd5b506102c1610a5a565b34801561034357600080fd5b506102c173ffffffffffffffffffffffffffffffffffffffff60043516602435610aed565b34801561037457600080fd5b50610120610baa565b34801561038957600080fd5b50610392610c67565b6040805173ffffffffffffffffffffffffffffffffffffffff9092168252519081900360200190f35b3480156103c757600080fd5b50610149610c83565b3480156103dc57600080fd5b5061012073ffffffffffffffffffffffffffffffffffffffff60043516602435610cfc565b34801561040d57600080fd5b5061012073ffffffffffffffffffffffffffffffffffffffff60043516602435610e02565b34801561043e57600080fd5b5061020473ffffffffffffffffffffffffffffffffffffffff60043581169060243516610eb5565b34801561047257600080fd5b506102c173ffffffffffffffffffffffffffffffffffffffff60043516610eed565b60035474010000000000000000000000000000000000000000900460ff1681565b6004805460408051602060026001851615610100027fffffffffffffffffffffffffffffffffffffffffffffffffffffffffffffffff0190941693909304601f810184900484028201840190925281815292918301828280156105595780601f1061052e57610100808354040283529160200191610559565b820191906000526020600020905b81548152906001019060200180831161053c57829003601f168201915b505050505081565b33600081815260026020908152604080832073ffffffffffffffffffffffffffffffffffffffff8716808552908352818420869055815186815291519394909390927f8c5be1e5ebec7d5bd14f71427d1e84f3dd0314c0f7b2291e5b200ac8c7c3b925928290030190a350600192915050565b60015490565b73ffffffffffffffffffffffffffffffffffffffff831660009081526020819052604081205482111561060c57600080fd5b73ffffffffffffffffffffffffffffffffffffffff8416600090815260026020908152604080832033845290915290205482111561064957600080fd5b73ffffffffffffffffffffffffffffffffffffffff8316151561066b57600080fd5b73ffffffffffffffffffffffffffffffffffffffff84166000908152602081905260409020546106a1908363ffffffff610f1a16565b73ffffffffffffffffffffffffffffffffffffffff80861660009081526020819052604080822093909355908516815220546106e3908363ffffffff610f2c16565b73ffffffffffffffffffffffffffffffffffffffff808516600090815260208181526040808320949094559187168152600282528281203382529091522054610732908363ffffffff610f1a16565b73ffffffffffffffffffffffffffffffffffffffff808616600081815260026020908152604080832033845282529182902094909455805186815290519287169391927fddf252ad1be2c89b69c2b068fc378daa952ba7f163c4a11628f55a4df523b3ef929181900390910190a35060019392505050565b60065460ff1681565b60035460009073ffffffffffffffffffffffffffffffffffffffff1633146107da57600080fd5b60035474010000000000000000000000000000000000000000900460ff161561080257600080fd5b600154610815908363ffffffff610f2c16565b60015573ffffffffffffffffffffffffffffffffffffffff831660009081526020819052604090205461084e908363ffffffff610f2c16565b73ffffffffffffffffffffffffffffffffffffffff841660008181526020818152604091829020939093558051858152905191927f0f6798a560793a54c3bcfe86a93cde1e73087d944c0ea20544137d412139688592918290030190a260408051838152905173ffffffffffffffffffffffffffffffffffffffff8516916000917fddf252ad1be2c89b69c2b068fc378daa952ba7f163c4a11628f55a4df523b3ef9181900360200190a350600192915050565b61090c3382610f3f565b50565b33600090815260026020908152604080832073ffffffffffffffffffffffffffffffffffffffff8616845290915281205480831061097d5733600090815260026020908152604080832073ffffffffffffffffffffffffffffffffffffffff881684529091528120556109bf565b61098d818463ffffffff610f1a16565b33600090815260026020908152604080832073ffffffffffffffffffffffffffffffffffffffff891684529091529020555b33600081815260026020908152604080832073ffffffffffffffffffffffffffffffffffffffff89168085529083529281902054815190815290519293927f8c5be1e5ebec7d5bd14f71427d1e84f3dd0314c0f7b2291e5b200ac8c7c3b925929181900390910190a35060019392505050565b73ffffffffffffffffffffffffffffffffffffffff1660009081526020819052604090205490565b60035473ffffffffffffffffffffffffffffffffffffffff163314610a7e57600080fd5b60035460405173ffffffffffffffffffffffffffffffffffffffff909116907ff8df31144d9c2f0f6b59d69b8b98abd5459d07f2742c4df920b25aae33c6482090600090a2600380547fffffffffffffffffffffffff0000000000000000000000000000000000000000169055565b73ffffffffffffffffffffffffffffffffffffffff82166000908152600260209081526040808320338452909152902054811115610b2a57600080fd5b73ffffffffffffffffffffffffffffffffffffffff82166000908152600260209081526040808320338452909152902054610b6b908263ffffffff610f1a16565b73ffffffffffffffffffffffffffffffffffffffff83166000908152600260209081526040808320338452909152902055610ba68282610f3f565b5050565b60035460009073ffffffffffffffffffffffffffffffffffffffff163314610bd157600080fd5b60035474010000000000000000000000000000000000000000900460ff1615610bf957600080fd5b600380547fffffffffffffffffffffff00ffffffffffffffffffffffffffffffffffffffff16740100000000000000000000000000000000000000001790556040517fae5184fba832cb2b1f702aca6117b8d265eaf03ad33eb133f19dde0f5920fa0890600090a150600190565b60035473ffffffffffffffffffffffffffffffffffffffff1681565b6005805460408051602060026001851615610100027fffffffffffffffffffffffffffffffffffffffffffffffffffffffffffffffff0190941693909304601f810184900484028201840190925281815292918301828280156105595780601f1061052e57610100808354040283529160200191610559565b33600090815260208190526040812054821115610d1857600080fd5b73ffffffffffffffffffffffffffffffffffffffff83161515610d3a57600080fd5b33600090815260208190526040902054610d5a908363ffffffff610f1a16565b336000908152602081905260408082209290925573ffffffffffffffffffffffffffffffffffffffff851681522054610d99908363ffffffff610f2c16565b73ffffffffffffffffffffffffffffffffffffffff8416600081815260208181526040918290209390935580518581529051919233927fddf252ad1be2c89b69c2b068fc378daa952ba7f163c4a11628f55a4df523b3ef9281900390910190a350600192915050565b33600090815260026020908152604080832073ffffffffffffffffffffffffffffffffffffffff86168452909152812054610e43908363ffffffff610f2c16565b33600081815260026020908152604080832073ffffffffffffffffffffffffffffffffffffffff89168085529083529281902085905580519485525191937f8c5be1e5ebec7d5bd14f71427d1e84f3dd0314c0f7b2291e5b200ac8c7c3b925929081900390910190a350600192915050565b73ffffffffffffffffffffffffffffffffffffffff918216600090815260026020908152604080832093909416825291909152205490565b60035473ffffffffffffffffffffffffffffffffffffffff163314610f1157600080fd5b61090c81611081565b600082821115610f2657fe5b50900390565b81810182811015610f3957fe5b92915050565b73ffffffffffffffffffffffffffffffffffffffff8216600090815260208190526040902054811115610f7157600080fd5b73ffffffffffffffffffffffffffffffffffffffff8216600090815260208190526040902054610fa7908263ffffffff610f1a16565b73ffffffffffffffffffffffffffffffffffffffff8316600090815260208190526040902055600154610fe0908263ffffffff610f1a16565b60015560408051828152905173ffffffffffffffffffffffffffffffffffffffff8416917fcc16f5dbb4873280815c1ee09dbd06736cffcc184412cf7a71a0fdb75d397ca5919081900360200190a260408051828152905160009173ffffffffffffffffffffffffffffffffffffffff8516917fddf252ad1be2c89b69c2b068fc378daa952ba7f163c4a11628f55a4df523b3ef9181900360200190a35050565b73ffffffffffffffffffffffffffffffffffffffff811615156110a357600080fd5b60035460405173ffffffffffffffffffffffffffffffffffffffff8084169216907f8be0079c531659141344cd1fd0a4f28419497f9722a3daafe3b4186f6b6457e090600090a3600380547fffffffffffffffffffffffff00000000000000000000000000000000000000001673ffffffffffffffffffffffffffffffffffffffff929092169190911790555600a165627a7a72305820b027ca971e283bed54da8ccef0a417c115dd0a53e67bbe6da144a0f08aecbb1f0029",
  "source": "// Copyright 2018 Stichting BlockMedx\n\npragma solidity ^0.4.24;\n\nimport \"openzeppelin-solidity/contracts/token/ERC20/MintableToken.sol\";\nimport \"openzeppelin-solidity/contracts/token/ERC20/StandardBurnableToken.sol\";\nimport \"openzeppelin-solidity/contracts/token/ERC20/DetailedERC20.sol\";\n\ncontract MDXToken is MintableToken, StandardBurnableToken, DetailedERC20 {\n\n    function _mint(address beneficary, uint256 amount) internal {\n        totalSupply_ = totalSupply_.add(amount);\n        balances[beneficary] = balances[beneficary].add(amount);\n        emit Mint(beneficary, amount);\n        emit Transfer(address(0), beneficary, amount);\n    }\n\n    constructor() DetailedERC20(\"BlockMedx Token\", \"MDX\", 18) public {\n\n        // Initial Distribution\n\n        // Private Sale\n        _mint(0x2dbCdF86a85076EFbe66957EEa1fE9459C80e3Dc, 40000000 ether);\n\n        // Foundation Address\n        _mint(0xeA95d42B9dE15FB68E0185056C9B49bBa70cceAC, 48000000 ether);\n\n        // Partnership Address\n        _mint(0x4CEa486b33Be32E9D6b7364fb9a6e44826A776FC, 20999200 ether);\n\n        // Team 1\n        _mint(0xf5F228D6674fE4CbD70B0035728528C435417c38, 25250000 ether);\n\n        // Team 2\n        _mint(0xf76F3155f1f5b4e7a1B4Ea3A52DD08654E82f6f3, 4500000 ether);\n\n        // Team 3\n        _mint(0xDA03fF825Eb2306cbDdC85a40fD774cd8F5aB689, 75000 ether);\n\n        // Team 4\n        _mint(0xce689935c7B2f37B59e6399199C8Cd3f31f1A951, 25000 ether);\n\n        // Team 5\n        _mint(0xB76563d7707b2289714A2385377d606Da13e673e, 150000 ether);\n\n        assert(totalSupply_ == 138999200 ether);\n\n    }\n\n}\n\n",
  "sourcePath": "/Users/marioanorganism/Documents/BlockMedx/blockmedx-token/contracts/MDXToken.sol",
  "compiler": {
    "name": "solc",
    "version": "0.4.24+commit.e67f0147.Emscripten.clang"
  },
  "schemaVersion": "2.0.0",
  "updatedAt": "2018-09-24T14:42:50.567Z"
}